{
  "contractName": "Alignment",
  "abi": [
    {
      "inputs": [
        {
          "name": "name",
          "type": "bytes32"
        },
        {
          "name": "url",
          "type": "bytes32"
        },
        {
          "name": "framework",
          "type": "bytes32"
        },
        {
          "name": "code",
          "type": "bytes32"
        }
      ],
      "payable": false,
      "stateMutability": "nonpayable",
      "type": "constructor"
    },
    {
      "constant": true,
      "inputs": [],
      "name": "getTargetName",
      "outputs": [
        {
          "name": "",
          "type": "bytes32"
        }
      ],
      "payable": false,
      "stateMutability": "view",
      "type": "function"
    },
    {
      "constant": true,
      "inputs": [],
      "name": "getTargetUrl",
      "outputs": [
        {
          "name": "",
          "type": "bytes32"
        }
      ],
      "payable": false,
      "stateMutability": "view",
      "type": "function"
    },
    {
      "constant": true,
      "inputs": [],
      "name": "getTargetFramework",
      "outputs": [
        {
          "name": "",
          "type": "bytes32"
        }
      ],
      "payable": false,
      "stateMutability": "view",
      "type": "function"
    },
    {
      "constant": true,
      "inputs": [],
      "name": "getTargetCode",
      "outputs": [
        {
          "name": "",
          "type": "bytes32"
        }
      ],
      "payable": false,
      "stateMutability": "view",
      "type": "function"
    }
  ],
  "bytecode": "0x6060604052341561000f57600080fd5b6040516080806102038339810160405280805190602001909190805190602001909190805190602001909190805190602001909190505083600081600019169055508260018160001916905550816002816000191690555080600381600019169055505050505061017e806100856000396000f300606060405260043610610062576000357c0100000000000000000000000000000000000000000000000000000000900463ffffffff168063104182bf14610067578063433f95d614610098578063a8a84b6f146100c9578063cd52d284146100fa575b600080fd5b341561007257600080fd5b61007a61012b565b60405180826000191660001916815260200191505060405180910390f35b34156100a357600080fd5b6100ab610135565b60405180826000191660001916815260200191505060405180910390f35b34156100d457600080fd5b6100dc61013e565b60405180826000191660001916815260200191505060405180910390f35b341561010557600080fd5b61010d610148565b60405180826000191660001916815260200191505060405180910390f35b6000600154905090565b60008054905090565b6000600354905090565b60006002549050905600a165627a7a72305820367fd5e9affe41484d5803c82d240dc03c4c5019078bed9654f29f85318476460029",
  "source": "pragma solidity ^0.4.18;\r\n\r\ncontract Alignment {\r\n    bytes32 private targetName;\r\n    bytes32 private targetUrl;\r\n    bytes32 private targetFramework;\r\n    bytes32 private targetCode;\r\n\r\n    function Alignment(bytes32 name, bytes32 url, bytes32 framework, bytes32 code) public {\r\n        targetName = name;\r\n        targetUrl = url;\r\n        targetFramework = framework;\r\n        targetCode = code;\r\n    }\r\n\r\n    function getTargetName() public view returns (bytes32) {\r\n        return targetName;\r\n    }\r\n\r\n    function getTargetUrl() public view returns (bytes32) {\r\n        return targetUrl;\r\n    }\r\n\r\n    function getTargetFramework() public view returns (bytes32) {\r\n        return targetFramework;\r\n    }\r\n\r\n    function getTargetCode() public view returns (bytes32) {\r\n        return targetCode;\r\n    }\r\n}",
  "sourcePath": "C:\\Projects\\innovatielab\\microcredentials\\microcredentials\\contracts\\Alignment.sol",
  "compiler": {
    "name": "solc",
    "version": "0.4.19+commit.c4cbbb05.Emscripten.clang"
  },
  "schemaVersion": "2.0.0",
  "updatedAt": "2018-03-18T13:26:15.157Z"
}