{
  "contractName": "Alignment",
  "abi": [
    {
      "inputs": [
        {
          "name": "name",
          "type": "bytes32"
        },
        {
          "name": "url",
          "type": "bytes32"
        },
        {
          "name": "framework",
          "type": "bytes32"
        },
        {
          "name": "code",
          "type": "bytes32"
        }
      ],
      "payable": false,
      "stateMutability": "nonpayable",
      "type": "constructor"
    },
    {
      "constant": true,
      "inputs": [],
      "name": "getTargetName",
      "outputs": [
        {
          "name": "",
          "type": "bytes32"
        }
      ],
      "payable": false,
      "stateMutability": "view",
      "type": "function"
    },
    {
      "constant": true,
      "inputs": [],
      "name": "getTargetUrl",
      "outputs": [
        {
          "name": "",
          "type": "bytes32"
        }
      ],
      "payable": false,
      "stateMutability": "view",
      "type": "function"
    },
    {
      "constant": true,
      "inputs": [],
      "name": "getTargetFramework",
      "outputs": [
        {
          "name": "",
          "type": "bytes32"
        }
      ],
      "payable": false,
      "stateMutability": "view",
      "type": "function"
    },
    {
      "constant": true,
      "inputs": [],
      "name": "getTargetCode",
      "outputs": [
        {
          "name": "",
          "type": "bytes32"
        }
      ],
      "payable": false,
      "stateMutability": "view",
      "type": "function"
    }
  ],
  "bytecode": "0x6060604052341561000f57600080fd5b6040516080806102038339810160405280805190602001909190805190602001909190805190602001909190805190602001909190505083600081600019169055508260018160001916905550816002816000191690555080600381600019169055505050505061017e806100856000396000f300606060405260043610610062576000357c0100000000000000000000000000000000000000000000000000000000900463ffffffff168063104182bf14610067578063433f95d614610098578063a8a84b6f146100c9578063cd52d284146100fa575b600080fd5b341561007257600080fd5b61007a61012b565b60405180826000191660001916815260200191505060405180910390f35b34156100a357600080fd5b6100ab610135565b60405180826000191660001916815260200191505060405180910390f35b34156100d457600080fd5b6100dc61013e565b60405180826000191660001916815260200191505060405180910390f35b341561010557600080fd5b61010d610148565b60405180826000191660001916815260200191505060405180910390f35b6000600154905090565b60008054905090565b6000600354905090565b60006002549050905600a165627a7a72305820ec4787491773c41954ad31a036bdec2ad3da0084a6afeca4b576f89123915e3f0029",
  "source": "pragma solidity ^0.4.18;\n\ncontract Alignment {\n    bytes32 private targetName;\n    bytes32 private targetUrl;\n    bytes32 private targetFramework;\n    bytes32 private targetCode;\n\n    function Alignment(bytes32 name, bytes32 url, bytes32 framework, bytes32 code) public {\n        targetName = name;\n        targetUrl = url;\n        targetFramework = framework;\n        targetCode = code;\n    }\n\n    function getTargetName() public view returns (bytes32) {\n        return targetName;\n    }\n\n    function getTargetUrl() public view returns (bytes32) {\n        return targetUrl;\n    }\n\n    function getTargetFramework() public view returns (bytes32) {\n        return targetFramework;\n    }\n\n    function getTargetCode() public view returns (bytes32) {\n        return targetCode;\n    }\n}",
  "sourcePath": "/home/dennis/blockchain/microcredentials/contracts/Alignment.sol",
  "compiler": {
    "name": "solc",
    "version": "0.4.19+commit.c4cbbb05.Emscripten.clang"
  },
  "schemaVersion": "1.0.1",
  "updatedAt": "2018-03-15T20:30:11.869Z"
}