{
  "contractName": "Assertion",
  "abi": [
    {
      "constant": true,
      "inputs": [],
      "name": "issuer",
      "outputs": [
        {
          "name": "",
          "type": "address"
        }
      ],
      "payable": false,
      "stateMutability": "view",
      "type": "function"
    },
    {
      "constant": true,
      "inputs": [],
      "name": "recipient",
      "outputs": [
        {
          "name": "",
          "type": "address"
        }
      ],
      "payable": false,
      "stateMutability": "view",
      "type": "function"
    },
    {
      "constant": true,
      "inputs": [],
      "name": "issuedOn",
      "outputs": [
        {
          "name": "",
          "type": "uint256"
        }
      ],
      "payable": false,
      "stateMutability": "view",
      "type": "function"
    },
    {
      "constant": true,
      "inputs": [],
      "name": "badgeClass",
      "outputs": [
        {
          "name": "",
          "type": "address"
        }
      ],
      "payable": false,
      "stateMutability": "view",
      "type": "function"
    },
    {
      "constant": true,
      "inputs": [],
      "name": "verificationType",
      "outputs": [
        {
          "name": "",
          "type": "bytes32"
        }
      ],
      "payable": false,
      "stateMutability": "view",
      "type": "function"
    },
    {
      "inputs": [
        {
          "name": "issuerAddress",
          "type": "address"
        },
        {
          "name": "recipientAddress",
          "type": "address"
        },
        {
          "name": "badgeClassAddress",
          "type": "address"
        },
        {
          "name": "hash",
          "type": "uint256"
        }
      ],
      "payable": false,
      "stateMutability": "nonpayable",
      "type": "constructor"
    },
    {
      "constant": true,
      "inputs": [],
      "name": "getIssuer",
      "outputs": [
        {
          "name": "",
          "type": "address"
        }
      ],
      "payable": false,
      "stateMutability": "view",
      "type": "function"
    },
    {
      "constant": true,
      "inputs": [],
      "name": "getBadgeHash",
      "outputs": [
        {
          "name": "",
          "type": "uint256"
        }
      ],
      "payable": false,
      "stateMutability": "view",
      "type": "function"
    }
  ],
  "bytecode": "0x6060604052341561000f57600080fd5b60405160808061046483398101604052808051906020019091908051906020019091908051906020019091908051906020019091905050836000806101000a81548173ffffffffffffffffffffffffffffffffffffffff021916908373ffffffffffffffffffffffffffffffffffffffff16021790555082600160006101000a81548173ffffffffffffffffffffffffffffffffffffffff021916908373ffffffffffffffffffffffffffffffffffffffff16021790555081600260006101000a81548173ffffffffffffffffffffffffffffffffffffffff021916908373ffffffffffffffffffffffffffffffffffffffff16021790555042600381905550806005819055505050505061033b806101296000396000f300606060405260043610610083576000357c0100000000000000000000000000000000000000000000000000000000900463ffffffff1680631d1438481461008857806352556421146100dd5780635743e1251461013257806366d003ac1461015b57806377dc74b2146101b0578063b90992b4146101d9578063d82109361461022e575b600080fd5b341561009357600080fd5b61009b61025f565b604051808273ffffffffffffffffffffffffffffffffffffffff1673ffffffffffffffffffffffffffffffffffffffff16815260200191505060405180910390f35b34156100e857600080fd5b6100f0610284565b604051808273ffffffffffffffffffffffffffffffffffffffff1673ffffffffffffffffffffffffffffffffffffffff16815260200191505060405180910390f35b341561013d57600080fd5b6101456102ad565b6040518082815260200191505060405180910390f35b341561016657600080fd5b61016e6102b7565b604051808273ffffffffffffffffffffffffffffffffffffffff1673ffffffffffffffffffffffffffffffffffffffff16815260200191505060405180910390f35b34156101bb57600080fd5b6101c36102dd565b6040518082815260200191505060405180910390f35b34156101e457600080fd5b6101ec6102e3565b604051808273ffffffffffffffffffffffffffffffffffffffff1673ffffffffffffffffffffffffffffffffffffffff16815260200191505060405180910390f35b341561023957600080fd5b610241610309565b60405180826000191660001916815260200191505060405180910390f35b6000809054906101000a900473ffffffffffffffffffffffffffffffffffffffff1681565b60008060009054906101000a900473ffffffffffffffffffffffffffffffffffffffff16905090565b6000600554905090565b600160009054906101000a900473ffffffffffffffffffffffffffffffffffffffff1681565b60035481565b600260009054906101000a900473ffffffffffffffffffffffffffffffffffffffff1681565b600454815600a165627a7a723058201d6f91e7cdb49ee39b5e16efdeaa7dee7dda8c2cc673ab401eb3a3c5aa7b486f0029",
  "source": "pragma solidity ^0.4.18;\r\n\r\nimport \"./BadgeClass.sol\";\r\nimport \"./Issuer.sol\";\r\nimport \"./Recipient.sol\";\r\n\r\ncontract Assertion {\r\n    Issuer public issuer;\r\n    Recipient public recipient;\r\n    BadgeClass public badgeClass;\r\n    uint public issuedOn;\r\n    bytes32 public verificationType;\r\n    uint badgeHash;\r\n\r\n    function Assertion(address issuerAddress, address recipientAddress, address badgeClassAddress, uint hash) public {\r\n        issuer = Issuer(issuerAddress);\r\n        recipient = Recipient(recipientAddress);\r\n        badgeClass = BadgeClass(badgeClassAddress);\r\n        issuedOn = now;\r\n        badgeHash = hash;\r\n    }\r\n\r\n    function getIssuer() public view returns (Issuer) {\r\n        return issuer;\r\n    }\r\n\r\n    function getBadgeHash() public view returns (uint) {\r\n        return badgeHash;\r\n    }\r\n\r\n}",
  "sourcePath": "C:\\Projects\\innovatielab\\microcredentials\\microcredentials\\contracts\\Assertion.sol",
  "compiler": {
    "name": "solc",
    "version": "0.4.19+commit.c4cbbb05.Emscripten.clang"
  },
  "schemaVersion": "2.0.0",
  "updatedAt": "2018-03-18T13:26:15.159Z"
}