{
  "contractName": "BadgeTemplate",
  "abi": [
    {
      "constant": true,
      "inputs": [],
      "name": "name",
      "outputs": [
        {
          "name": "",
          "type": "string"
        }
      ],
      "payable": false,
      "stateMutability": "view",
      "type": "function"
    },
    {
      "constant": true,
      "inputs": [],
      "name": "getId",
      "outputs": [
        {
          "name": "",
          "type": "string"
        }
      ],
      "payable": false,
      "stateMutability": "view",
      "type": "function"
    },
    {
      "constant": true,
      "inputs": [],
      "name": "getOwner",
      "outputs": [
        {
          "name": "",
          "type": "address"
        }
      ],
      "payable": false,
      "stateMutability": "view",
      "type": "function"
    },
    {
      "constant": true,
      "inputs": [],
      "name": "owner",
      "outputs": [
        {
          "name": "",
          "type": "address"
        }
      ],
      "payable": false,
      "stateMutability": "view",
      "type": "function"
    },
    {
      "constant": true,
      "inputs": [],
      "name": "id",
      "outputs": [
        {
          "name": "",
          "type": "string"
        }
      ],
      "payable": false,
      "stateMutability": "view",
      "type": "function"
    },
    {
      "constant": true,
      "inputs": [],
      "name": "context",
      "outputs": [
        {
          "name": "",
          "type": "bytes32"
        }
      ],
      "payable": false,
      "stateMutability": "view",
      "type": "function"
    },
    {
      "constant": true,
      "inputs": [
        {
          "name": "",
          "type": "uint256"
        }
      ],
      "name": "typeOB",
      "outputs": [
        {
          "name": "",
          "type": "bytes32"
        }
      ],
      "payable": false,
      "stateMutability": "view",
      "type": "function"
    },
    {
      "inputs": [
        {
          "name": "alignmentAddresses",
          "type": "address[]"
        },
        {
          "name": "id",
          "type": "string"
        },
        {
          "name": "typeOB",
          "type": "bytes32[2]"
        },
        {
          "name": "name",
          "type": "string"
        }
      ],
      "payable": false,
      "stateMutability": "nonpayable",
      "type": "constructor"
    }
  ],
  "bytecode": "0x6060604052341561000f57600080fd5b60405161083a38038061083a833981016040528080518201919060200180518201919060200190816040018051820191905050828282336000806101000a81548173ffffffffffffffffffffffffffffffffffffffff021916908373ffffffffffffffffffffffffffffffffffffffff160217905550826001908051906020019061009b92919061013d565b508160029060026100ad9291906101bd565b507f68747470733a2f2f773369642e6f72672f6f70656e6261646765732f763200006004816000191690555080600590805190602001906100ef92919061013d565b5050505033600660006101000a81548173ffffffffffffffffffffffffffffffffffffffff021916908373ffffffffffffffffffffffffffffffffffffffff1602179055505050505061024d565b828054600181600116156101000203166002900490600052602060002090601f016020900481019282601f1061017e57805160ff19168380011785556101ac565b828001600101855582156101ac579182015b828111156101ab578251825591602001919060010190610190565b5b5090506101b99190610203565b5090565b82600281019282156101f2579160200282015b828111156101f15782518290600019169055916020019190600101906101d0565b5b5090506101ff9190610228565b5090565b61022591905b80821115610221576000816000905550600101610209565b5090565b90565b61024a91905b8082111561024657600081600090555060010161022e565b5090565b90565b6105de8061025c6000396000f300606060405260043610610083576000357c0100000000000000000000000000000000000000000000000000000000900463ffffffff16806306fdde03146100885780635d1ca63114610116578063893d20e8146101a45780638da5cb5b146101f9578063af640d0f1461024e578063d0496d6a146102dc578063e6f60cff1461030d575b600080fd5b341561009357600080fd5b61009b61034c565b6040518080602001828103825283818151815260200191508051906020019080838360005b838110156100db5780820151818401526020810190506100c0565b50505050905090810190601f1680156101085780820380516001836020036101000a031916815260200191505b509250505060405180910390f35b341561012157600080fd5b6101296103ea565b6040518080602001828103825283818151815260200191508051906020019080838360005b8381101561016957808201518184015260208101905061014e565b50505050905090810190601f1680156101965780820380516001836020036101000a031916815260200191505b509250505060405180910390f35b34156101af57600080fd5b6101b7610492565b604051808273ffffffffffffffffffffffffffffffffffffffff1673ffffffffffffffffffffffffffffffffffffffff16815260200191505060405180910390f35b341561020457600080fd5b61020c6104bb565b604051808273ffffffffffffffffffffffffffffffffffffffff1673ffffffffffffffffffffffffffffffffffffffff16815260200191505060405180910390f35b341561025957600080fd5b6102616104e0565b6040518080602001828103825283818151815260200191508051906020019080838360005b838110156102a1578082015181840152602081019050610286565b50505050905090810190601f1680156102ce5780820380516001836020036101000a031916815260200191505b509250505060405180910390f35b34156102e757600080fd5b6102ef61057e565b60405180826000191660001916815260200191505060405180910390f35b341561031857600080fd5b61032e6004808035906020019091905050610584565b60405180826000191660001916815260200191505060405180910390f35b60058054600181600116156101000203166002900480601f0160208091040260200160405190810160405280929190818152602001828054600181600116156101000203166002900480156103e25780601f106103b7576101008083540402835291602001916103e2565b820191906000526020600020905b8154815290600101906020018083116103c557829003601f168201915b505050505081565b6103f261059e565b60018054600181600116156101000203166002900480601f0160208091040260200160405190810160405280929190818152602001828054600181600116156101000203166002900480156104885780601f1061045d57610100808354040283529160200191610488565b820191906000526020600020905b81548152906001019060200180831161046b57829003601f168201915b5050505050905090565b60008060009054906101000a900473ffffffffffffffffffffffffffffffffffffffff16905090565b6000809054906101000a900473ffffffffffffffffffffffffffffffffffffffff1681565b60018054600181600116156101000203166002900480601f0160208091040260200160405190810160405280929190818152602001828054600181600116156101000203166002900480156105765780601f1061054b57610100808354040283529160200191610576565b820191906000526020600020905b81548152906001019060200180831161055957829003601f168201915b505050505081565b60045481565b60028160028110151561059357fe5b016000915090505481565b6020604051908101604052806000815250905600a165627a7a7230582023d65e03acea02379643387eb132921403ccc048fb5ed4f41af49bed30e69caa0029",
  "source": "pragma solidity ^0.4.18;\r\n\r\nimport \"./Profile.sol\";\r\nimport \"./Alignment.sol\";\r\n\r\ncontract BadgeTemplate is Profile {\r\n    address private owner;\r\n    Alignment[] private alignments;\r\n\r\n    function BadgeTemplate(address[] alignmentAddresses, string id, bytes32[2] typeOB, string name)\r\n                Profile(id, typeOB, name) public {\r\n        owner = msg.sender;\r\n          /*\r\n        for(uint i = 0; i < alignments.length; i++) {\r\n            alignments[i] = Alignment(alignmentAddresses[i]);\r\n        }   */\r\n    }\r\n}\r\n",
  "sourcePath": "C:\\Projects\\innovatielab\\microcredentials\\microcredentials\\contracts\\BadgeTemplate.sol",
  "compiler": {
    "name": "solc",
    "version": "0.4.19+commit.c4cbbb05.Emscripten.clang"
  },
  "schemaVersion": "2.0.0",
  "updatedAt": "2018-03-18T13:26:15.158Z"
}