{
  "contractName": "OpenBadges",
  "abi": [
    {
      "constant": false,
      "inputs": [
        {
          "name": "issuer",
          "type": "address"
        },
        {
          "name": "recipient",
          "type": "address"
        },
        {
          "name": "badgeClass",
          "type": "address"
        },
        {
          "name": "hash",
          "type": "uint256"
        }
      ],
      "name": "assertBadge",
      "outputs": [
        {
          "name": "",
          "type": "uint256"
        }
      ],
      "payable": false,
      "stateMutability": "nonpayable",
      "type": "function"
    },
    {
      "constant": true,
      "inputs": [
        {
          "name": "recipient",
          "type": "address"
        },
        {
          "name": "number",
          "type": "uint256"
        }
      ],
      "name": "getAssertion",
      "outputs": [
        {
          "name": "",
          "type": "address"
        }
      ],
      "payable": false,
      "stateMutability": "view",
      "type": "function"
    },
    {
      "constant": true,
      "inputs": [
        {
          "name": "recipient",
          "type": "address"
        },
        {
          "name": "number",
          "type": "uint256"
        },
        {
          "name": "hash",
          "type": "uint256"
        }
      ],
      "name": "validateAssertion",
      "outputs": [
        {
          "name": "",
          "type": "bool"
        }
      ],
      "payable": false,
      "stateMutability": "view",
      "type": "function"
    }
  ],
  "bytecode": "0x6060604052341561000f57600080fd5b610a268061001e6000396000f300606060405260043610610057576000357c0100000000000000000000000000000000000000000000000000000000900463ffffffff168063984a8e571461005c578063b7033659146100f0578063c0a3b02514610153575b600080fd5b341561006757600080fd5b6100da600480803573ffffffffffffffffffffffffffffffffffffffff1690602001909190803573ffffffffffffffffffffffffffffffffffffffff1690602001909190803573ffffffffffffffffffffffffffffffffffffffff169060200190919080359060200190919050506101d5565b6040518082815260200191505060405180910390f35b34156100fb57600080fd5b610139600480803573ffffffffffffffffffffffffffffffffffffffff169060200190919080359060200190919080359060200190919050506103c5565b604051808215151515815260200191505060405180910390f35b341561015e57600080fd5b610193600480803573ffffffffffffffffffffffffffffffffffffffff1690602001909190803590602001909190505061050c565b604051808273ffffffffffffffffffffffffffffffffffffffff1673ffffffffffffffffffffffffffffffffffffffff16815260200191505060405180910390f35b60008060018060008773ffffffffffffffffffffffffffffffffffffffff1673ffffffffffffffffffffffffffffffffffffffff16815260200190815260200160002060008282540192505081905550600160008673ffffffffffffffffffffffffffffffffffffffff1673ffffffffffffffffffffffffffffffffffffffff16815260200190815260200160002054905085858585610273610586565b808573ffffffffffffffffffffffffffffffffffffffff1673ffffffffffffffffffffffffffffffffffffffff1681526020018473ffffffffffffffffffffffffffffffffffffffff1673ffffffffffffffffffffffffffffffffffffffff1681526020018373ffffffffffffffffffffffffffffffffffffffff1673ffffffffffffffffffffffffffffffffffffffff168152602001828152602001945050505050604051809103906000f080151561032c57600080fd5b6000808773ffffffffffffffffffffffffffffffffffffffff1673ffffffffffffffffffffffffffffffffffffffff168152602001908152602001600020600083815260200190815260200160002060006101000a81548173ffffffffffffffffffffffffffffffffffffffff021916908373ffffffffffffffffffffffffffffffffffffffff16021790555080915050949350505050565b6000806000808673ffffffffffffffffffffffffffffffffffffffff1673ffffffffffffffffffffffffffffffffffffffff168152602001908152602001600020600085815260200190815260200160002060009054906101000a900473ffffffffffffffffffffffffffffffffffffffff169050600073ffffffffffffffffffffffffffffffffffffffff168173ffffffffffffffffffffffffffffffffffffffff1614156104785760009150610504565b828173ffffffffffffffffffffffffffffffffffffffff16635743e1256000604051602001526040518163ffffffff167c0100000000000000000000000000000000000000000000000000000000028152600401602060405180830381600087803b15156104e557600080fd5b6102c65a03f115156104f657600080fd5b505050604051805190501491505b509392505050565b60008060008473ffffffffffffffffffffffffffffffffffffffff1673ffffffffffffffffffffffffffffffffffffffff168152602001908152602001600020600083815260200190815260200160002060009054906101000a900473ffffffffffffffffffffffffffffffffffffffff16905092915050565b604051610464806105978339019056006060604052341561000f57600080fd5b60405160808061046483398101604052808051906020019091908051906020019091908051906020019091908051906020019091905050836000806101000a81548173ffffffffffffffffffffffffffffffffffffffff021916908373ffffffffffffffffffffffffffffffffffffffff16021790555082600160006101000a81548173ffffffffffffffffffffffffffffffffffffffff021916908373ffffffffffffffffffffffffffffffffffffffff16021790555081600260006101000a81548173ffffffffffffffffffffffffffffffffffffffff021916908373ffffffffffffffffffffffffffffffffffffffff16021790555042600381905550806005819055505050505061033b806101296000396000f300606060405260043610610083576000357c0100000000000000000000000000000000000000000000000000000000900463ffffffff1680631d1438481461008857806352556421146100dd5780635743e1251461013257806366d003ac1461015b57806377dc74b2146101b0578063b90992b4146101d9578063d82109361461022e575b600080fd5b341561009357600080fd5b61009b61025f565b604051808273ffffffffffffffffffffffffffffffffffffffff1673ffffffffffffffffffffffffffffffffffffffff16815260200191505060405180910390f35b34156100e857600080fd5b6100f0610284565b604051808273ffffffffffffffffffffffffffffffffffffffff1673ffffffffffffffffffffffffffffffffffffffff16815260200191505060405180910390f35b341561013d57600080fd5b6101456102ad565b6040518082815260200191505060405180910390f35b341561016657600080fd5b61016e6102b7565b604051808273ffffffffffffffffffffffffffffffffffffffff1673ffffffffffffffffffffffffffffffffffffffff16815260200191505060405180910390f35b34156101bb57600080fd5b6101c36102dd565b6040518082815260200191505060405180910390f35b34156101e457600080fd5b6101ec6102e3565b604051808273ffffffffffffffffffffffffffffffffffffffff1673ffffffffffffffffffffffffffffffffffffffff16815260200191505060405180910390f35b341561023957600080fd5b610241610309565b60405180826000191660001916815260200191505060405180910390f35b6000809054906101000a900473ffffffffffffffffffffffffffffffffffffffff1681565b60008060009054906101000a900473ffffffffffffffffffffffffffffffffffffffff16905090565b6000600554905090565b600160009054906101000a900473ffffffffffffffffffffffffffffffffffffffff1681565b60035481565b600260009054906101000a900473ffffffffffffffffffffffffffffffffffffffff1681565b600454815600a165627a7a72305820e34f8229bb0e75347037210b081105b644c7c23078a1704beb681554c2f01a110029a165627a7a723058207994f6e1997fa51991232c52a81700cfc9c46886c94d80f2474481e058e8c9fa0029",
  "source": "pragma solidity ^0.4.18;\n\nimport \"./Recipient.sol\";\nimport \"./Assertion.sol\";\n\ncontract OpenBadges {\n\n    mapping (address => mapping (uint => Assertion)) private assertions;\n    mapping (address => uint) private lastAssertions;\n\n    function assertBadge(address issuer, address recipient, address badgeClass, uint hash) public returns (uint) {\n        lastAssertions[recipient] += 1;\n        uint lastAssertionNumber = lastAssertions[recipient];\n\n        assertions[recipient][lastAssertionNumber] = new Assertion(issuer, recipient, badgeClass, hash);\n\n        return lastAssertionNumber;\n    }\n\n    function getAssertion(address recipient, uint number) public view returns (Assertion) {\n        return assertions[recipient][number];\n    }\n\n    function validateAssertion(address recipient, uint number, uint hash) public view returns (bool) {\n        Assertion assertion = assertions[recipient][number];\n\n        if(assertion == Assertion(0)) {\n            return false;\n        }\n        return assertion.getBadgeHash() == hash;\n    }\n\n\n\n}",
  "sourcePath": "/home/dennis/blockchain/microcredentials/contracts/OpenBadges.sol",
  "compiler": {
    "name": "solc",
    "version": "0.4.19+commit.c4cbbb05.Emscripten.clang"
  },
  "schemaVersion": "1.0.1",
  "updatedAt": "2018-03-07T14:14:08.822Z"
}